{
  "contractName": "CV_Storage",
  "abi": [
    {
      "inputs": [],
      "stateMutability": "nonpayable",
      "type": "constructor"
    },
    {
      "inputs": [],
      "name": "owner",
      "outputs": [
        {
          "internalType": "address",
          "name": "",
          "type": "address"
        }
      ],
      "stateMutability": "view",
      "type": "function"
    },
    {
      "inputs": [],
      "name": "prevCV",
      "outputs": [
        {
          "internalType": "address",
          "name": "",
          "type": "address"
        }
      ],
      "stateMutability": "view",
      "type": "function"
    },
    {
      "inputs": [
        {
          "internalType": "string",
          "name": "_name",
          "type": "string"
        },
        {
          "internalType": "string",
          "name": "_description",
          "type": "string"
        },
        {
          "internalType": "string",
          "name": "_experience",
          "type": "string"
        },
        {
          "internalType": "string",
          "name": "_skills",
          "type": "string"
        },
        {
          "internalType": "string",
          "name": "_date",
          "type": "string"
        }
      ],
      "name": "addCV",
      "outputs": [],
      "stateMutability": "nonpayable",
      "type": "function"
    },
    {
      "inputs": [],
      "name": "viewCV",
      "outputs": [
        {
          "components": [
            {
              "internalType": "address",
              "name": "owner",
              "type": "address"
            },
            {
              "internalType": "string",
              "name": "name",
              "type": "string"
            },
            {
              "internalType": "string",
              "name": "description",
              "type": "string"
            },
            {
              "internalType": "string",
              "name": "experience",
              "type": "string"
            },
            {
              "internalType": "string",
              "name": "skills",
              "type": "string"
            },
            {
              "internalType": "string",
              "name": "date",
              "type": "string"
            }
          ],
          "internalType": "struct CV_Storage.CV",
          "name": "",
          "type": "tuple"
        }
      ],
      "stateMutability": "view",
      "type": "function"
    },
    {
      "inputs": [
        {
          "internalType": "address",
          "name": "_prevCV",
          "type": "address"
        }
      ],
      "name": "linkToPrev",
      "outputs": [],
      "stateMutability": "nonpayable",
      "type": "function"
    }
  ],
  "bytecode": "0x60806040523480156200001157600080fd5b50336000806101000a81548173ffffffffffffffffffffffffffffffffffffffff021916908373ffffffffffffffffffffffffffffffffffffffff1602179055506000600160006101000a81548173ffffffffffffffffffffffffffffffffffffffff021916908373ffffffffffffffffffffffffffffffffffffffff16021790555033600260000160006101000a81548173ffffffffffffffffffffffffffffffffffffffff021916908373ffffffffffffffffffffffffffffffffffffffff160217905550604051806020016040528060008152506002600101908051906020019062000102929190620001b4565b50604051806020016040528060008152506002800190805190602001906200012c929190620001b4565b50604051806020016040528060008152506002600301908051906020019062000157929190620001b4565b50604051806020016040528060008152506002600401908051906020019062000182929190620001b4565b506040518060200160405280600081525060026005019080519060200190620001ad929190620001b4565b50620002c9565b828054620001c29062000293565b90600052602060002090601f016020900481019282620001e6576000855562000232565b82601f106200020157805160ff191683800117855562000232565b8280016001018555821562000232579182015b828111156200023157825182559160200191906001019062000214565b5b50905062000241919062000245565b5090565b5b808211156200026057600081600090555060010162000246565b5090565b7f4e487b7100000000000000000000000000000000000000000000000000000000600052602260045260246000fd5b60006002820490506001821680620002ac57607f821691505b60208210811415620002c357620002c262000264565b5b50919050565b610f3f80620002d96000396000f3fe608060405234801561001057600080fd5b50600436106100575760003560e01c80632cbd816f1461005c5780635a835bca14610078578063656b59aa146100965780638da5cb5b146100b2578063c72d68fa146100d0575b600080fd5b610076600480360381019061007191906108ce565b6100ee565b005b610080610251565b60405161008d919061090a565b60405180910390f35b6100b060048036038101906100ab919061098a565b610277565b005b6100ba610409565b6040516100c7919061090a565b60405180910390f35b6100d861042d565b6040516100e59190610bf4565b60405180910390f35b60008054906101000a900473ffffffffffffffffffffffffffffffffffffffff1673ffffffffffffffffffffffffffffffffffffffff163373ffffffffffffffffffffffffffffffffffffffff161461017c576040517f08c379a000000000000000000000000000000000000000000000000000000000815260040161017390610c99565b60405180910390fd5b600073ffffffffffffffffffffffffffffffffffffffff16600160009054906101000a900473ffffffffffffffffffffffffffffffffffffffff1673ffffffffffffffffffffffffffffffffffffffff161461020d576040517f08c379a000000000000000000000000000000000000000000000000000000000815260040161020490610d2b565b60405180910390fd5b80600160006101000a81548173ffffffffffffffffffffffffffffffffffffffff021916908373ffffffffffffffffffffffffffffffffffffffff16021790555050565b600160009054906101000a900473ffffffffffffffffffffffffffffffffffffffff1681565b60008054906101000a900473ffffffffffffffffffffffffffffffffffffffff1673ffffffffffffffffffffffffffffffffffffffff163373ffffffffffffffffffffffffffffffffffffffff1614610305576040517f08c379a00000000000000000000000000000000000000000000000000000000081526004016102fc90610c99565b60405180910390fd5b60405160200161031490610d7c565b60405160208183030381529060405280519060200120600260010160405160200161033f9190610e86565b6040516020818303038152906040528051906020012014610395576040517f08c379a000000000000000000000000000000000000000000000000000000000815260040161038c90610ee9565b60405180910390fd5b8989600260010191906103a9929190610777565b5087876002800191906103bd929190610777565b508585600260030191906103d2929190610777565b508383600260040191906103e7929190610777565b508181600260050191906103fc929190610777565b5050505050505050505050565b60008054906101000a900473ffffffffffffffffffffffffffffffffffffffff1681565b6104356107fd565b60026040518060c00160405290816000820160009054906101000a900473ffffffffffffffffffffffffffffffffffffffff1673ffffffffffffffffffffffffffffffffffffffff1673ffffffffffffffffffffffffffffffffffffffff1681526020016001820180546104a890610dc0565b80601f01602080910402602001604051908101604052809291908181526020018280546104d490610dc0565b80156105215780601f106104f657610100808354040283529160200191610521565b820191906000526020600020905b81548152906001019060200180831161050457829003601f168201915b5050505050815260200160028201805461053a90610dc0565b80601f016020809104026020016040519081016040528092919081815260200182805461056690610dc0565b80156105b35780601f10610588576101008083540402835291602001916105b3565b820191906000526020600020905b81548152906001019060200180831161059657829003601f168201915b505050505081526020016003820180546105cc90610dc0565b80601f01602080910402602001604051908101604052809291908181526020018280546105f890610dc0565b80156106455780601f1061061a57610100808354040283529160200191610645565b820191906000526020600020905b81548152906001019060200180831161062857829003601f168201915b5050505050815260200160048201805461065e90610dc0565b80601f016020809104026020016040519081016040528092919081815260200182805461068a90610dc0565b80156106d75780601f106106ac576101008083540402835291602001916106d7565b820191906000526020600020905b8154815290600101906020018083116106ba57829003601f168201915b505050505081526020016005820180546106f090610dc0565b80601f016020809104026020016040519081016040528092919081815260200182805461071c90610dc0565b80156107695780601f1061073e57610100808354040283529160200191610769565b820191906000526020600020905b81548152906001019060200180831161074c57829003601f168201915b505050505081525050905090565b82805461078390610dc0565b90600052602060002090601f0160209004810192826107a557600085556107ec565b82601f106107be57803560ff19168380011785556107ec565b828001600101855582156107ec579182015b828111156107eb5782358255916020019190600101906107d0565b5b5090506107f99190610849565b5090565b6040518060c00160405280600073ffffffffffffffffffffffffffffffffffffffff16815260200160608152602001606081526020016060815260200160608152602001606081525090565b5b8082111561086257600081600090555060010161084a565b5090565b600080fd5b600080fd5b600073ffffffffffffffffffffffffffffffffffffffff82169050919050565b600061089b82610870565b9050919050565b6108ab81610890565b81146108b657600080fd5b50565b6000813590506108c8816108a2565b92915050565b6000602082840312156108e4576108e3610866565b5b60006108f2848285016108b9565b91505092915050565b61090481610890565b82525050565b600060208201905061091f60008301846108fb565b92915050565b600080fd5b600080fd5b600080fd5b60008083601f84011261094a57610949610925565b5b8235905067ffffffffffffffff8111156109675761096661092a565b5b6020830191508360018202830111156109835761098261092f565b5b9250929050565b60008060008060008060008060008060a08b8d0312156109ad576109ac610866565b5b60008b013567ffffffffffffffff8111156109cb576109ca61086b565b5b6109d78d828e01610934565b9a509a505060208b013567ffffffffffffffff8111156109fa576109f961086b565b5b610a068d828e01610934565b985098505060408b013567ffffffffffffffff811115610a2957610a2861086b565b5b610a358d828e01610934565b965096505060608b013567ffffffffffffffff811115610a5857610a5761086b565b5b610a648d828e01610934565b945094505060808b013567ffffffffffffffff811115610a8757610a8661086b565b5b610a938d828e01610934565b92509250509295989b9194979a5092959850565b610ab081610890565b82525050565b600081519050919050565b600082825260208201905092915050565b60005b83811015610af0578082015181840152602081019050610ad5565b83811115610aff576000848401525b50505050565b6000601f19601f8301169050919050565b6000610b2182610ab6565b610b2b8185610ac1565b9350610b3b818560208601610ad2565b610b4481610b05565b840191505092915050565b600060c083016000830151610b676000860182610aa7565b5060208301518482036020860152610b7f8282610b16565b91505060408301518482036040860152610b998282610b16565b91505060608301518482036060860152610bb38282610b16565b91505060808301518482036080860152610bcd8282610b16565b91505060a083015184820360a0860152610be78282610b16565b9150508091505092915050565b60006020820190508181036000830152610c0e8184610b4f565b905092915050565b600082825260208201905092915050565b7f546869732066756e6374696f6e206973207265737472696374656420746f207460008201527f686520636f6e74726163742773206f776e657200000000000000000000000000602082015250565b6000610c83603383610c16565b9150610c8e82610c27565b604082019050919050565b60006020820190508181036000830152610cb281610c76565b9050919050565b7f412070726576696f7573207265666572656e636520616c72656164792065786960008201527f7374730000000000000000000000000000000000000000000000000000000000602082015250565b6000610d15602383610c16565b9150610d2082610cb9565b604082019050919050565b60006020820190508181036000830152610d4481610d08565b9050919050565b600081905092915050565b50565b6000610d66600083610d4b565b9150610d7182610d56565b600082019050919050565b6000610d8782610d59565b9150819050919050565b7f4e487b7100000000000000000000000000000000000000000000000000000000600052602260045260246000fd5b60006002820490506001821680610dd857607f821691505b60208210811415610dec57610deb610d91565b5b50919050565b60008190508160005260206000209050919050565b60008154610e1481610dc0565b610e1e8186610d4b565b94506001821660008114610e395760018114610e4a57610e7d565b60ff19831686528186019350610e7d565b610e5385610df2565b60005b83811015610e7557815481890152600182019150602081019050610e56565b838801955050505b50505092915050565b6000610e928284610e07565b915081905092915050565b7f546869732043562063616e6e6f7420626520616c746572656400000000000000600082015250565b6000610ed3601983610c16565b9150610ede82610e9d565b602082019050919050565b60006020820190508181036000830152610f0281610ec6565b905091905056fea26469706673582212200025d5bd3bd1a7c2498866c7cd17e0a2cb909a9e963eab06272ad64ed9211c7464736f6c634300080a0033",
  "immutableReferences": {},
  "source": "// SPDX-License-Identifier: MIT\npragma solidity >=0.4.22 <0.9.0;\n\ncontract CV_Storage {\n    struct CV {\n        address owner;\n        string name;\n        string description;\n        string experience;\n        string skills;\n        string date;\n    }\n\n    address public owner;\n    address public prevCV;\n    CV private cv;\n\n    constructor() {\n        owner = msg.sender;\n        prevCV = address(0);\n\n        // CV variables initialization\n        cv.owner = msg.sender;\n        cv.name = \"\";\n        cv.description = \"\";\n        cv.experience = \"\";\n        cv.skills = \"\";\n        cv.date = \"\";\n    }\n\n    /****************************\n              Modifiers\n    *****************************/\n\n    // Only Owner Modifier\n    modifier restricted() {\n        require(\n            msg.sender == owner,\n            \"This function is restricted to the contract's owner\"\n        );\n        _;\n    }\n\n    // Only Add Previous refernce when a reference does not exist\n    modifier notChanged() {\n        require(prevCV == address(0), \"A previous reference already exists\");\n        _;\n    }\n\n    // Only Change cv data when cv not edited\n    modifier CVNotEdited() {\n        require(\n            keccak256(abi.encodePacked((cv.name))) ==\n                keccak256(abi.encodePacked((\"\"))),\n            \"This CV cannot be altered\"\n        );\n        _;\n    }\n\n    /****************************\n              Functions\n    *****************************/\n\n    function addCV(\n        string calldata _name,\n        string calldata _description,\n        string calldata _experience,\n        string calldata _skills,\n        string calldata _date\n    ) public restricted CVNotEdited {\n        cv.name = _name;\n        cv.description = _description;\n        cv.experience = _experience;\n        cv.skills = _skills;\n        cv.date = _date;\n    }\n\n    function viewCV() public view returns (CV memory) {\n        return cv;\n    }\n\n    function linkToPrev(address _prevCV) public restricted notChanged {\n        prevCV = _prevCV;\n    }\n}\n",
  "sourcePath": "C:\\Users\\ADAN\\Desktop\\BlockChain Project\\contracts\\CV_Storage.sol",
  "compiler": {
    "name": "solc",
    "version": "0.8.10+commit.fc410830.Emscripten.clang"
  },
  "schemaVersion": "3.4.4",
  "updatedAt": "2021-12-19T22:12:29.062Z",
  "devdoc": {
    "kind": "dev",
    "methods": {},
    "version": 1
  },
  "userdoc": {
    "kind": "user",
    "methods": {},
    "version": 1
  }
}