{
    "contractName": "CV_Storage",
    "abi": [
        {
            "inputs": [],
            "stateMutability": "nonpayable",
            "type": "constructor"
        },
        {
            "inputs": [
                {
                    "internalType": "string",
                    "name": "_description",
                    "type": "string"
                }
            ],
            "name": "addCV",
            "outputs": [],
            "stateMutability": "nonpayable",
            "type": "function"
        },
        {
            "inputs": [
                {
                    "internalType": "address",
                    "name": "_prevCV",
                    "type": "address"
                }
            ],
            "name": "linkToPrev",
            "outputs": [],
            "stateMutability": "nonpayable",
            "type": "function"
        },
        {
            "inputs": [],
            "name": "owner",
            "outputs": [
                {
                    "internalType": "address",
                    "name": "",
                    "type": "address"
                }
            ],
            "stateMutability": "view",
            "type": "function"
        },
        {
            "inputs": [],
            "name": "prevCV",
            "outputs": [
                {
                    "internalType": "address",
                    "name": "",
                    "type": "address"
                }
            ],
            "stateMutability": "view",
            "type": "function"
        },
        {
            "inputs": [],
            "name": "viewCV",
            "outputs": [
                {
                    "components": [
                        {
                            "internalType": "string",
                            "name": "dob",
                            "type": "string"
                        },
                        {
                            "internalType": "string",
                            "name": "description",
                            "type": "string"
                        }
                    ],
                    "internalType": "struct CV_Storage.CV",
                    "name": "",
                    "type": "tuple"
                }
            ],
            "stateMutability": "view",
            "type": "function"
        }
    ],
    "bytecode": "608060405234801561001057600080fd5b50600080546001600160a01b03199081163317825560018054909116905560408051602081019182905282905261004a916002919061006f565b506040805160208101918290526000908190526100699160039161006f565b50610143565b82805461007b90610108565b90600052602060002090601f01602090048101928261009d57600085556100e3565b82601f106100b657805160ff19168380011785556100e3565b828001600101855582156100e3579182015b828111156100e35782518255916020019190600101906100c8565b506100ef9291506100f3565b5090565b5b808211156100ef57600081556001016100f4565b600181811c9082168061011c57607f821691505b6020821081141561013d57634e487b7160e01b600052602260045260246000fd5b50919050565b6105e5806101526000396000f3fe608060405234801561001057600080fd5b50600436106100575760003560e01c80630e09737e1461005c5780632cbd816f146100715780635a835bca146100845780638da5cb5b146100b4578063c72d68fa146100c7575b600080fd5b61006f61006a3660046103f0565b6100dc565b005b61006f61007f366004610462565b610132565b600154610097906001600160a01b031681565b6040516001600160a01b0390911681526020015b60405180910390f35b600054610097906001600160a01b031681565b6100cf6101e3565b6040516100ab91906104df565b6000546001600160a01b0316331461010f5760405162461bcd60e51b815260040161010690610521565b60405180910390fd5b600080546001600160a01b0319163317905561012d60038383610357565b505050565b6000546001600160a01b0316331461015c5760405162461bcd60e51b815260040161010690610521565b6001546001600160a01b0316156101c15760405162461bcd60e51b815260206004820152602360248201527f412070726576696f7573207265666572656e636520616c72656164792065786960448201526273747360e81b6064820152608401610106565b600180546001600160a01b0319166001600160a01b0392909216919091179055565b60408051808201909152606080825260208201526000546001600160a01b031633146102215760405162461bcd60e51b815260040161010690610521565b600260405180604001604052908160008201805461023e90610574565b80601f016020809104026020016040519081016040528092919081815260200182805461026a90610574565b80156102b75780601f1061028c576101008083540402835291602001916102b7565b820191906000526020600020905b81548152906001019060200180831161029a57829003601f168201915b505050505081526020016001820180546102d090610574565b80601f01602080910402602001604051908101604052809291908181526020018280546102fc90610574565b80156103495780601f1061031e57610100808354040283529160200191610349565b820191906000526020600020905b81548152906001019060200180831161032c57829003601f168201915b505050505081525050905090565b82805461036390610574565b90600052602060002090601f01602090048101928261038557600085556103cb565b82601f1061039e5782800160ff198235161785556103cb565b828001600101855582156103cb579182015b828111156103cb5782358255916020019190600101906103b0565b506103d79291506103db565b5090565b5b808211156103d757600081556001016103dc565b6000806020838503121561040357600080fd5b823567ffffffffffffffff8082111561041b57600080fd5b818501915085601f83011261042f57600080fd5b81358181111561043e57600080fd5b86602082850101111561045057600080fd5b60209290920196919550909350505050565b60006020828403121561047457600080fd5b81356001600160a01b038116811461048b57600080fd5b9392505050565b6000815180845260005b818110156104b85760208185018101518683018201520161049c565b818111156104ca576000602083870101525b50601f01601f19169290920160200192915050565b6020815260008251604060208401526104fb6060840182610492565b90506020840151601f198483030160408501526105188282610492565b95945050505050565b60208082526033908201527f546869732066756e6374696f6e206973207265737472696374656420746f207460408201527234329031b7b73a3930b1ba13b99037bbb732b960691b606082015260800190565b600181811c9082168061058857607f821691505b602082108114156105a957634e487b7160e01b600052602260045260246000fd5b5091905056fea26469706673582212206b67848771413c75aa156630290648062e815bd83ecd3eb5928cc480c33e3ac864736f6c634300080a0033",
    "sourcePath": "c:/Users/ADAN/Desktop/BlockChain Project/contracts/CV_Storage.sol",
    "compiler": {
        "name": "solc",
        "version": "0.8.10+commit.fc410830"
    },
    "functionHashes": {
        "addCV(string)": "0e09737e",
        "linkToPrev(address)": "2cbd816f",
        "owner()": "8da5cb5b",
        "prevCV()": "5a835bca",
        "viewCV()": "c72d68fa"
    },
    "gasEstimates": {
        "creation": {
            "codeDepositCost": "301800",
            "executionCost": "infinite",
            "totalCost": "infinite"
        },
        "external": {
            "addCV(string)": "infinite",
            "linkToPrev(address)": "28814",
            "owner()": "2370",
            "prevCV()": "2348",
            "viewCV()": "infinite"
        }
    }
}